:020000040000fa
:080000000002040000000000f2
:020000040000fa
:04000800d20500001d
:020000040000fa
:04000c0014060000d6
:020000040000fa
:040010007406000072
:020000040000fa
:04001400f2050000f1
:020000040000fa
:0400180034060000aa
:020000040000fa
:04001c005406000086
:020000040000fa
:040020009406000042
:020000040000fa
:0400240000070000d1
:020000040000fa
:0400280000070000cd
:020000040000fa
:04002c0000070000c9
:020000040000fa
:0400300000070000c5
:020000040000fa
:0400340000070000c1
:020000040000fa
:0400380000070000bd
:020000040000fa
:04003c0000070000b9
:020000040000fa
:0400400000070000b5
:020000040000fa
:0400440000070000b1
:020000040000fa
:0400480000070000ad
:020000040000fa
:04004c0000070000a9
:020000040000fa
:0400500000070000a5
:020000040000fa
:0400540000070000a1
:020000040000fa
:04005800000700009d
:020000040000fa
:04005c00c0060000da
:020000040000fa
:040060000007000095
:020000040000fa
:040064000007000091
:020000040000fa
:04006800000700008d
:020000040000fa
:04006c000007000089
:020000040000fa
:040070000007000085
:020000040000fa
:040074001e03000067
:020000040000fa
:04007800000700007d
:020000040000fa
:04007c000007000079
:020000040000fa
:040080000007000075
:020000040000fa
:040084000007000071
:020000040000fa
:04008800000700006d
:020000040000fa
:04008c000007000069
:020000040000fa
:040090000007000065
:020000040000fa
:040094000007000061
:020000040000fa
:040098004c03000015
:020000040000fa
:04009c000007000059
:020000040000fa
:0400a0000007000055
:020000040000fa
:0400a4000007000051
:020000040000fa
:0400a800000700004d
:020000040000fa
:0400ac000007000049
:020000040000fa
:0400b0000007000045
:020000040000fa
:0400b4000007000041
:020000040000fa
:0400b800000700003d
:020000040000fa
:0400bc000007000039
:020000040000fa
:0400c0000007000035
:020000040000fa
:0400c4000007000031
:020000040000fa
:0400c800000700002d
:020000040000fa
:0400cc000007000029
:020000040000fa
:0400d0000007000025
:020000040000fa
:0400d4000007000021
:020000040000fa
:0400d800000700001d
:020000040000fa
:0400dc000007000019
:020000040000fa
:0400e0000007000015
:020000040000fa
:0400e4000007000011
:020000040000fa
:0400e800000700000d
:020000040000fa
:0400ec000007000009
:020000040000fa
:0400f0008203000087
:020000040000fa
:0400f4000007000001
:020000040000fa
:0400f80000070000fd
:020000040000fa
:0400fc0000070000f9
:020000040000fa
:0401000000070000f4
:020000040000fa
:0401040000070000f0
:020000040000fa
:0401080000070000ec
:020000040000fa
:04010c0000070000e8
:020000040000fa
:0401100000070000e4
:020000040000fa
:0401140000070000e0
:020000040000fa
:0401180000070000dc
:020000040000fa
:04011c0000070000d8
:020000040000fa
:0401200000070000d4
:020000040000fa
:0401240000070000d0
:020000040000fa
:0401280000070000cc
:020000040000fa
:04012c0000070000c8
:020000040000fa
:0401300000070000c4
:020000040000fa
:0401340000070000c0
:020000040000fa
:0401380000070000bc
:020000040000fa
:04013c0000070000b8
:020000040000fa
:0401400000070000b4
:020000040000fa
:0401440000070000b0
:020000040000fa
:0401480000070000ac
:020000040000fa
:04014c0000070000a8
:020000040000fa
:0401500000070000a4
:020000040000fa
:0401540000070000a0
:020000040000fa
:04015800000700009c
:020000040000fa
:04015c000007000098
:020000040000fa
:040160000007000094
:020000040000fa
:040164000007000090
:020000040000fa
:04016800000700008c
:020000040000fa
:04016c000007000088
:020000040000fa
:040170000007000084
:020000040000fa
:040174000007000080
:020000040000fa
:04017800000700007c
:020000040000fa
:04017c000007000078
:020000040000fa
:040180000007000074
:020000040000fa
:040184000007000070
:020000040000fa
:04018800000700006c
:020000040000fa
:04018c000007000068
:020000040000fa
:040190000007000064
:020000040000fa
:040194000007000060
:020000040000fa
:04019800000700005c
:020000040000fa
:04019c000007000058
:020000040000fa
:0401a0000007000054
:020000040000fa
:0401a4000007000050
:020000040000fa
:0401a800000700004c
:020000040000fa
:0401ac000007000048
:020000040000fa
:0401b0000007000044
:020000040000fa
:0401b4000007000040
:020000040000fa
:0401b800000700003c
:020000040000fa
:0401bc000007000038
:020000040000fa
:0401c0000007000034
:020000040000fa
:0401c4000007000030
:020000040000fa
:0401c800000700002c
:020000040000fa
:0401cc000007000028
:020000040000fa
:0401d0000007000024
:020000040000fa
:0401d4000007000020
:020000040000fa
:0401d800000700001c
:020000040000fa
:0401dc000007000018
:020000040000fa
:0401e0000007000014
:020000040000fa
:0401e4000007000010
:020000040000fa
:0401e800000700000c
:020000040000fa
:0401ec000007000008
:020000040000fa
:0401f0000007000004
:020000040000fa
:0401f4000007000000
:020000040000fa
:0401f80000070000fc
:020000040000fa
:0401fc0000070000f8
:020000040000fa
:0402000000070000f3
:020000040000fa
:0402040000070000ef
:020000040000fa
:0402080000070000eb
:020000040000fa
:04020c0000070000e7
:020000040000fa
:0402100000070000e3
:020000040000fa
:0402140000070000df
:020000040000fa
:0402180000070000db
:020000040000fa
:04021c0000070000d7
:020000040000fa
:0402200000070000d3
:020000040000fa
:0402240000070000cf
:020000040000fa
:0402280000070000cb
:020000040000fa
:04022c0000070000c7
:020000040000fa
:0402300000070000c3
:020000040000fa
:0402340000070000bf
:020000040000fa
:0402380000070000bb
:020000040000fa
:04023c0000070000b7
:020000040000fa
:0402400000070000b3
:020000040000fa
:0402440000070000af
:020000040000fa
:0402480000070000ab
:020000040000fa
:04024c0000070000a7
:020000040000fa
:0402500000070000a3
:020000040000fa
:04025400000700009f
:020000040000fa
:04025800000700009b
:020000040000fa
:04025c000007000097
:020000040000fa
:040260000007000093
:020000040000fa
:04026400000700008f
:020000040000fa
:04026800000700008b
:020000040000fa
:04026c000007000087
:020000040000fa
:040270000007000083
:020000040000fa
:04027400000700007f
:020000040000fa
:04027800000700007b
:020000040000fa
:04027c000007000077
:020000040000fa
:040280000007000073
:020000040000fa
:10040000af2021000eff27000e0188000000000031
:10041000000020000000e000020032000001200087
:100420002002880014000700770207000000e000a7
:1004300003003a00e05b23000100200002003700c7
:100440000000200001002000810f70000100320038
:100450000f000700000020000000e0000200320052
:1004600000000200000000006a1f020000000000ff
:100470000040da000000fe00601820000000e000ec
:1004800002003200002020009001880000000600d9
:10049000a1028800800478000000eb001f003700f4
:1004a000e284440054a0b4009905ba00e2844400f8
:1004b00054a0b4009906ba00e284440054a0b400e9
:1004c0000006eb00476fde00fd07b200ae018800ba
:1004d000636ce10003003a000ad801000000eb0061
:1004e0000e003700606ce10008003a00004deb00a0
:1004f0000a05e800020039003420ec000af0a000f0
:100500008b05e900f9ff3e00040037006168e10057
:10051000010032000086eb000b00070019c7ba008b
:100520000e04e0001905ba0003003a000a00e000da
:10053000dbff3a0000000600fe07b200ae028800b2
:100540008a047800f5ff37000cd0a300e20f4d00bd
:100550001c00390089027800354dba000a05e80010
:10056000020039003420ec000af0a0008b05e900fd
:100570000f003200254dba000a05e80002003900dc
:100580003420ec000af0a0008b05e90008003200de
:100590000c00e0000600320015cdba000a05e800a4
:1005a000020039003420ec000af0a0008b05e900bd
:1005b0008984e80054a0b4000b00e000e2ff3a0098
:1005c000000006009902ba00055d78008b05e9007d
:1005d000f7ff3200c82ade00055d78008b05e900d0
:1005e000f3ff32000c00e000f1ff320019ddba0029
:1005f000eeff3700883304000000000002340400de
:100600000000000044360400000000000413040051
:1006100000000000d813040000000000ca14040009
:1006200000000000de0c040000000000120c0400ba
:10063000000000008a1d0400000000003600f800e1
:10064000809fbe00829fbe00849fbe00869fbe002a
:100650000000fa0010408000680060000000e00028
:1006600006003200408580000000e00002003200f9
:1006700040858000000001000268a9000080fa00a7
:100680004f03be004f02be004f01be004f00be0030
:100690003600f900004006003600f800809fbe00da
:1006a000829fbe00849fbe00869fbe000000fa00ad
:1006b000508580000000e00002003200508580007c
:1006c0000000010090202100104078008040e800e8
:1006d00090202100014878008020210011c0b30043
:1006e000014878000388a9000080fa004f03be008b
:1006f0004f02be004f01be004f00be003600f900a1
:10070000004006003600f800809fbe00829fbe00b9
:10071000849fbe00869fbe000000fa000648a90024
:10072000c110800000082000008060000000e00090
:100730000800320018e2a9009830ef00f084800031
:10074000200090008000eb00010878009e30ef0050
:100750000d013700c08480008000eb00b200200053
:1007600003002000820f5000838f5800fc003e00e1
:10077000000601000b003700390037007500370014
:100780009c003700f3003700c8003700d90037005d
:10079000f0003700db003700f1003700340037008d
:1007a0005000370000092100200090006200600026
:1007b0000000e000f3003a00000921001000900062
:1007c000f08488000009210010009000104078009b
:1007d0009af0b7000009210010009000100090006e
:1007e000e08488000009210010009000e60040002d
:1007f00000092100110098000009210090009000dc
:10080000a01f2100808f500003003a000009210042
:10081000411f21001100980000092100a000900054
:100820000100a10021009800000921009000900023
:100830000009210010007800808f500004003a0069
:1008400000092100a00090000110a00021009800e4
:100850001602a80020002000c0848800ca003700cb
:100860001622a80020002000c0848800c60037009f
:10087000c110800000002800008060000000e0003f
:100880000800320000092100604090008040e8002c
:10089000000921006140980040002000e914070091
:1008a000b9003700008580008000d100f00f2000e3
:1008b000008060009010880000858000610060006a
:1008c000004078000004e00003003200b000200087
:1008d000c0848800ac00370030002000c08488004d
:1008e000a9003700c11080000000280000806000cf
:1008f0000000e00008003200000921006040900084
:100900008040e8000009210061409800400020007c
:10091000cc1407009c0037001622a8000085800038
:100920004800de00e6006000000f200001007000bb
:1009300000858800008580000000a00000858800f8
:1009400010c0b300a2f0b70020002000c0848800cf
:100950008d003700a2d0bf00e14f50000a003200e6
:10096000e08480001000780000858800e08480002a
:100970002000900020858800e084800020409000c6
:10098000a6f0b70001003700a270ef0001858000db
:10099000f00f2000808f5000090036000085800095
:1009a0004800de00e6006000000f2000010070003b
:1009b00090108800a0002000c084880072003700da
:1009c0000085800090108800008580006100600034
:1009d000004078000004e0000300320050002000d6
:1009e000c08488006800370030002000c084880080
:1009f00065003700c1108000000028000080600002
:100a00000000e00009003200000921006040900071
:100a10008040e800000921006140980019e2a90027
:100a2000500020008714070057003700a6d0bf00f1
:100a30008080fb008100e900cf08de008140780063
:100a40000040e900a6f0b7000104e0001000320009
:100a5000e084800066004000e08488009ad0bf00f7
:100a60000040e9009af0b7009ad0bf000004e0000f
:100a700003003a00200020007214070042003700f3
:100a80001622a80020002000c08488003e00370005
:100a900020858000904078008180fb0091108800c4
:100aa0000000e8002085880037003700c110800072
:100ab00000002800008060000000e0000900320013
:100ac00000092100604090008040e80000092100fa
:100ad00061409800400020005a14070019e2a90064
:100ae000290037001662a80080002000c08488001a
:100af0002500370080002000c08488001662a8000e
:100b0000210037002085800081108000814078001e
:100b1000014878000000e80020858800a6d0bf00ca
:100b20000040e900a6f0b700a6d0bf000004e00036
:100b30000400320016a2a90060002000c0848800d2
:100b40000200370016a2a8002d1407001682a80084
:100b50000d003700200020003a1407000a0037007b
:100b600000092100604090008040e8000009210059
:100b7000614098006000200032140700000000006f
:100b800001003700000000000080fa004f03be00a3
:100b90004f02be004f01be004f00be003600f900fc
:100ba000004006003600f800809fbe00829fbe0015
:100bb000849fbe00869fbe000000fa00c028a900e6
:100bc0000000eb00771807000080fa004f03be001a
:100bd0004f02be004f01be004f00be003600f900bc
:100be000004006003600f800809fbe00829fbe00d5
:100bf000849fbe00869fbe000000fa006e180700aa
:100c0000c048a90010002000661807000080fa0004
:100c10004f03be004f02be004f01be004f00be009a
:100c20003600f900004006003600f800809fbe0044
:100c3000829fbe00849fbe00869fbe000000fa0017
:100c4000c068a90020002000561807000080fa00a4
:100c50004f03be004f02be004f01be004f00be005a
:100c60003600f900004006003600f800809fbe0004
:100c7000829fbe00849fbe00869fbe000000fa00d7
:100c8000c088a90030002000461807000080fa0044
:100c90004f03be004f02be004f01be004f00be001a
:100ca0003600f900004006003600f800809fbe00c4
:100cb000829fbe00849fbe00869fbe000000fa0097
:100cc000c0a8a90040002000361807000080fa00e4
:100cd0004f03be004f02be004f01be004f00be00da
:100ce0003600f900004006003600f800809fbe0084
:100cf000829fbe00849fbe00869fbe000000fa0057
:100d0000c608a90070002000261807000080fa001d
:100d10004f03be004f02be004f01be004f00be0099
:100d20003600f900004006003600f800809fbe0043
:100d3000829fbe00849fbe00869fbe000000fa0016
:100d40002146800000022000008060000000e000da
:100d500003003200c4a8a900900020001118070069
:100d600020468000700060000000e00003003200b8
:100d7000c488a900a00020000a180700ffff370060
:100d80003600f800809fbe00829fbe00849fbe0098
:100d9000869fbe003200f8003400f80010002000ea
:100da000a00188000020200000d0fe000000fa0012
:100db0000140800000002200008060000000e00090
:100dc00006003200908580000000e0000200320042
:100dd000908580000000010001a8a9000080fa00b1
:100de0003400f9003200f9004f03be004f02be008c
:100df0004f01be004f00be003600f9000040060063
:100e00000040da000000fe000000050003f0a20030
:100e1000889fbe008a9fbe008c1f780000010700db
:100e2000070133006450e1004f0032006420e1000c
:100e30005200320003826c0007003b000905d0001d
:100e40000306d000820f54000c065d00020039003a
:100e5000020032008901780003067800858255007f
:100e600004003d000003fd008103fd008502ea004f
:100e70008b854200840f720002003b00600010006e
:100e8000e08018006011b8000005eb007a28e1004e
:100e90000a00390006007800c75ddd00f707b200e0
:100ea000878075002d003700828171000a0178006b
:100eb000610560008180d1000080d3008502e900d7
:100ec000f9ff3b00060440008784480002003b0015
:100ed00060041400e0841c000988a30007003200ad
:100ee0008a81710082817100610164008904d100ee
:100ef0000884d3008b05e800170037000978a300a9
:100f000013003a000b00e000130034008b05e900e9
:100f10000804440089844c000a4474000978a30042
:100f20000d003a000b00e000070034008b05e900db
:100f30000804440089844c0001003a000b002000a2
:100f40000978a300f7ff32000001eb000200370030
:100f5000828171000a017800760007000cf0a7007a
:100f600001f0a000bf0037006420e10002003a0059
:100f7000838f6c00bf0033000801be000200be007a
:100f8000b8003700889fbe008a9fbe008c1f780083
:100f9000a3000700aa00330003866c006450e10040
:100fa0002e0032006420e100330032006150e10085
:100fb0002f0032006120e1003100320085855500ac
:100fc000eb07b000090020000804200005003700ee
:100fd0000804440089844c000a00310006034300e1
:100fe00087834b000001530081815b00f8ff3300d1
:100ff0000203be000800a0000804440089844c00dd
:10100000f6ff3900c639dd008301730001003200ac
:10101000130020008904d1000884d3000998a3009c
:10102000050032000800a7000300a0008904d100d9
:101030000884d3008b05e8008904d1000884d3001c
:101040000001eb000281d2003a00070001f0a1008c
:101050000cf0a70001f0a000820037006420e1003e
:10106000840032000801be000200be00f7ff370016
:101070006120e1007f0032006000b800f3ff37001c
:101080000000200001f82700f0ff370014002000c6
:10109000bf003700f4ff2f00bd0037000001be0085
:1010a0004a0007000470a70003f0a1006509b10021
:1010b000160032000d0035006828e10006003500fa
:1010c000f0ff2f00f1ff27000300e00013003b00ba
:1010d0000100280000000500000040008180480059
:1010e0008502e900fcff3a0008003700f88f420053
:1010f00002003c008000eb00000005008100d100f0
:101100000080d3008502e800fcff3a000300e00005
:1011100002003b0060001000e080180000000600a4
:101120004f89de0082017800b40037006011b800fa
:10113000c200370081002000618055000b003d0097
:101140000b00200061fe2f000100e1001d003400b3
:1011500082817100610164008904d1000884d30098
:101160000000e800faff3a0071002000610064000e
:1011700003007000020060000900320061044400b6
:10118000e0844c000988a500050032008b05e800ca
:101190006808e10002003a008904d1000884d30005
:1011a000f20f20000258e10005003d00c75ddd00a0
:1011b000f907b20089807500080078000000060079
:1011c0000bf827008b00780000000500c70ade003e
:1011d000f107b200f50fb20008003200e1cf420083
:1011e000020032000170a00024000500810f700091
:1011f000010032000408050044000500810f700062
:1012000002003a00140005008502e90000004000d9
:1012100081c04800fcff3b000170a00024000500d5
:101220000004be00e9ff07000003be000405be0085
:101230000200be00e5ff0700844f750000000600b5
:101240000200be006450e100050036006420e100a9
:10125000020036000968a30001003a000800be0041
:101260000160a0004f0678004f05be004f04be008d
:1012700000000600f0ff2f00f1ff2700f9ff370004
:10128000889fbe008a9fbe008c1f7800e4ff070085
:10129000ebff330003866c006450e1002400320051
:1012a0006420e100270032006150e100220032009a
:1012b0006120e100210032008b854200eb07b10084
:1012c0000134b800003ab8000804420089844a009a
:1012d000013ab8000030b8008880400009014a0097
:1012e00004003300000040008180480002014900f2
:1012f0008b05e900c909dd0083017000010032009f
:1013000013002000c814de004814dd004709de0089
:101310001200b200c808de000884700085ff0700d4
:1013200001f0a1000cf0a70001f0a000cdff3700f4
:101330006120e100cfff32000801be000200be00c4
:10134000f7ff37006150e100fcff3a00c9ff3700aa
:101350006022b800060220000000d0008180d20088
:101360000482d2008582d2000000a0000202520056
:1013700083825a00030031000202420083824a0045
:101380000000a1000603e900f3ff3a000000060098
:10139000889fbe008a9fbe00841f7800a0ff0700c0
:1013a0004f00780011003300f0ff2f00838f6c0096
:1013b00006003b00040565000a00a700080037008e
:1013c00009f0a6001000200008003700820f54002a
:1013d000838f5c00030039001000200001003e00f4
:1013e0000000200009f0a7000000ea004f05be0041
:1013f0004f04be000000e00000000600881f7800d7
:10140000030478000300e00007003d0060001000c6
:10141000e080180060011900e081190002003b0023
:1014200001f02d00030037000400070008f0a700ba
:1014300001f0a0004f04780000000600889fbe0065
:101440008a9fbe0000827000040271000482710055
:10145000260032000004be000200be006011b80089
:101460006b092000950220000182cf000a0039009c
:101470000541b1000082cf00070039000541b100ed
:101480000982cf00040039000541b1000882cf0075
:10149000010039000541b10005425200120032003e
:1014a0000a003b0082817100610164008100d1006b
:1014b0000080d3008984d3000884d3008b05e80022
:1014c0000442e800f7ff3a00070037000804440030
:1014d00089844c0000004800818048008b05e900a9
:1014e0000442e900f9ff3a0012ff07004f05be0071
:0814f0004f04be0000000600dd
:020000040000fa
:1014f8002d2d00002d4f00004b2d00002d2d00003c
:1015080000210000c0c20000c0d00000c8df0000f9
:1015180021000000f3e30000eeeb000020ec0000e7
:10152800e0eb00000065000072720000205200002d
:10153800312d00003e00000065720000722000009e
:10154800523200002d3e0000006d0000696e000060
:101558003e3d00006d61000078000000e02e0000b4
:10156800eff00000e8e20000002d00002d2d000043
:101578002d2d00002d2d000000ef0000f0ee0000e2
:10158800efee0000f02e000020000000e8f100005f
:10159800eaeb0000fef700002e200000003e0000ed
:1015a800676f000020720000756e00000053000095
:1015b8004554000020500000535400004e00000025
:1015c80025000000532000002d5a0000312d000096
:1015d80046420000003c00003e000000532000008e
:1015e8002d5a0000322d000046420000002d000058
:1015f80073740000617400005f4400004f00000035
:101608002d5300005441000054550000532d000094
:10161800003e0000534500005256000049430000b8
:1016280045000000202000004d4500004e550000f8
:10163800203c0000003a000054200000686f0000c1
:101648006461000020000000736500006300000072
:101658003a7400002e64000072690000766500008c
:10166800003a0000712e00005a5000004756000052
:10167800200000003a440000422000007a6f000079
:101688006e650000006f0000650000003a5200001f
:101698005f460000423100002d3e0000006d000052
:1016a800560000003a520000312000006d69000029
:1016b8006e200000003a000052310000206d00004a
:1016c80061780000200000003a5200005f460000e8
:1016d800423200002d3e0000003a00005232000065
:1016e800206d0000696e0000200000003a520000e2
:1016f800322000006d61000078200000003a0000f0
:10170800c02e0000eff00000e8e200002e0000000c
:101718003a4500005849000054200000202d0000e0
:10172800003a00002d2d00002d2d00002d2d000069
:101738003e0000003a5300004156000045200000da
:1017480020260000003a00004558000049540000d7
:101758002d2d00003e000000205000004f530000d7
:10176800495400002020000000740000617200004d
:101778002e3100002e3000003100000041a0000092
:1017880042a10000e0450000a3a40000a5a60000b7
:101798004ba700004d4800004fa800005043000030
:1017a80054a90000aa580000e1ab0000ace2000018
:1017b800adae000062af0000b0b1000061b2000041
:1017c800b3b40000e3650000b6b70000b8b9000084
:1017d800babb0000bcbd00006fbe00007063000013
:1017e800bf790000e4780000e5c00000c1e6000011
:0c17f800c2c30000c4c50000c6c700004a
:020000040000fa
:101804000000fa0040a7a8000080fa0000000600cb
:101814000000fa000060fe000080fa0000000600ec
:101824000000fa0022d0bf00f34f5000040034003f
:10183400b08180000000e800b0818800010037001a
:101844003630ef00b1818000003f2200808f5000cd
:10185400030036002870ef0010c0b30017f0b70083
:1018640024d0bf000040e80024f0b700410221006a
:101874009140780080c2b30080cf50000300340050
:1018840010c0b30027f0b7002470ef001430ef004d
:1018940044003700a0808000c300dd004013210015
:1018a40000804000104078000004e0000c003a0082
:1018b400a0808000c300dd00a01321000080400050
:1018c4008040eb0001487800a0808000c300dd0068
:1018d40080132100008040008000eb0001087800a4
:1018e400a08080004300dd00e6004000401321009a
:1018f40000804000104078000004e00026003a0018
:10190400a0808000c300dd0040132100008040005f
:10191400104078000004e0001f003400a080800024
:10192400c300dd00648140004113210081004100b7
:10193400910078008100e8004301dd00801321005c
:101944000000410001087800a08080004300dd0011
:10195400e400400040132100008040009000780023
:10196400a08080004300dd000081e80040132100d6
:101974000000410010007800808f500006003900fc
:10198400a0808000c300dd00a0132100008040007f
:1019940011c0b30001487800a08080000000e80076
:1019a400a0808800a0808000f00f5000b9ff3400b0
:1019b4000080fa00000006000000fa0010c0b30026
:1019c40017f0b7009070800000407800614060001c
:1019d4001df0b700917080000008200000806000b6
:1019e40000f0a7000000ea000000ea004f00de005b
:1019f400004078001ef0b7009170800000002100c4
:101a04000080600000f0a7000000ea000000ea0087
:101a14004f00de00004078001ff0b7000080fa009d
:101a2400000006000600fa0040479800ce409000ef
:101a340040c6b30080cf50000200360040c6b30059
:101a4400404798004e4090000080fb008000eb006f
:101a5400008fbe00204880008000eb001e0178004b
:101a64008191b9009e019000809ab90084017800a8
:101a7400030141009e0178000018b80001014100f3
:101a84008200780042062000030020002ffe070099
:101a9400008fbe001e007800304888000080fa00e5
:101aa400000006000600fa0040479800ce4090006f
:101ab40040c6b30080cf50000200360040c6b300d9
:101ac400404798004e4090000080fb008000eb00ef
:101ad400008fbe00204880008000eb001e017800cb
:101ae4008191b9009e019000809ab9008401780028
:101af400030141009e0178000018b8000101410073
:101b04008200780042062000030020000ffe070038
:101b1400008fbe001e007800804888000080fa0014
:101b2400000006000000fa000000eb00ec0e0700c5
:101b34001083880020002000e90e0700208388001d
:101b440040002000e60e070030838800600020007b
:101b5400e30e07004083880080002000e00e0700a9
:101b640050838800a0002000dd0e070060838800f9
:101b7400c0002000da0e070070838800e000200017
:101b8400d70e07008083880000012000d40e0700d0
:101b9400908388009183800090032300808f5000fd
:101ba4001000320010022000108388002000200062
:101bb400208388001000200030838800300020003b
:101bc400408388004006200050838800803e200027
:101bd400608388004006200070838800803e2000d7
:101be400808388000080fa00000006000000fa00ec
:101bf40010838000800078000000eb00a30e070033
:101c04002083800080007800200020009f0e0700c1
:101c14003083800080007800400020009b0e070085
:101c2400408380008000780060002000970e070049
:101c34009103230000012000940e07000080fa00a5
:101c4400000006000a00fa002007980031079800f7
:101c540042079800ae0090003e00900000805000c3
:101c640000f0a7000000ea00100798003e00900072
:101c74000000e00017003400be0090003006200091
:101c8400808f500013003c009e0090004e00900096
:101c9400808f50000d003400ae0090003e00900094
:101ca400808f5000020034000080eb00000f7800a9
:101cb400ae0090003e009000808f500005003d0073
:101cc40010002000000f7800020037000000eb0035
:101cd400000f78003e0090000000e00008003a0089
:101ce4002e0090000000e000030034000080eb00b0
:101cf400000f7800020037000000eb00000f7800ae
:101d0400be00900040062000808f500009003a0079
:101d1400ae00900030062000808f500003003c008d
:101d240010002000000f7800020037000000eb00d4
:101d3400000f78001e0078000080fa000000060002
:101d44000000fa0051d0bf000004e000020032009d
:101d5400350ea80001003700350ea90052d0bf008f
:101d64000004e0000200320025aea80001003700a4
:101d740025aea90053d0bf000004e00002003200e9
:101d840004eea8000100370004eea90054d0bf00ff
:101d94000004e00002003200150ea8000100370024
:101da400150ea90055d0bf000004e0000200320067
:101db400152ea80001003700152ea90055d0bf002c
:101dc4000004e0000200320045eea80001003700e4
:101dd40045eea9003170ef0051d0bf00e140600032
:101de40031d0bf0000c0700031f0b70052d0bf0046
:101df4000000fb00610060000000400080407800ab
:101e040031d0bf0000c0700031f0b70053d0bf0024
:101e14000000fb00610060004200dd0080407800ab
:101e240031d0bf0000c0700031f0b70054d0bf0003
:101e34000000fb00610060004300dd00804078008a
:101e440031d0bf0000c0700031f0b70055d0bf00e2
:101e54000000fb00610060004400dd008040780069
:101e640031d0bf0000c0700031f0b70031d0bf00e6
:101e74000000fb00670060000000e0000300340085
:101e840020838000e20f50000800320031d0bf00f0
:101e94000000fb00630060000000e0000a00340062
:101ea40020838000e10f500007003a002ad0bf00d1
:101eb4000004e00002003200148ea8000300370082
:101ec400148ea90001003700148ea9000080fa00c6
:101ed400000006000400fa00908180000000e80081
:101ee4009081880090818000f40f5000c301340079
:101ef4003230ef0090012000ca12070020838000d6
:101f0400e20f500018013a0030d0bf000004e00096
:101f140008003a00808d80000000e00005003a00cf
:101f2400800c2000708d8800c01a210011c0b300fd
:101f34000148780030d0bf00e14f50000a003a0059
:101f4400808d80000000e00007003a0011838000cb
:101f5400400620008088b900708d8800c01a2100d6
:101f640011c0b3000148780030d0bf00e24f5000e8
:101f740008003a00808d80000000e00005003a006f
:101f8400800c2000708d8800c01a210011c0b3009d
:101f94000148780030d0bf00e34f50000a003a00f7
:101fa400808d80000000e00007003a00118380006b
:101fb400400620008088b900708d8800c01a210076
:101fc40011c0b3000148780030d0bf00e44f500086
:101fd40008003a00808d80000000e00005003a000f
:101fe400800c2000708d8800c01a210011c0b3003d
:101ff4000148780030d0bf00e54f50000a003a0095
:10200400808d80000000e00007003a00118380000a
:10201400400620008088b900708d8800c01a210015
:1020240011c0b3000148780030d0bf00e64f500023
:1020340008003a00808d80000000e00005003a00ae
:10204400800c2000708d8800c01a210011c0b300dc
:102054000148780030d0bf00e74f50000a003a0032
:10206400808d80000000e00007003a0011838000aa
:10207400400620008088b900708d8800c01a2100b5
:1020840011c0b3000148780030d0bf00e84f5000c1
:1020940008003a00808d80000000e00005003a004e
:1020a400800c2000708d8800c01a210011c0b3007c
:1020b4000148780030d0bf00e94f50000a003a00d0
:1020c400808d80000000e00007003a00118380004a
:1020d400400620008088b900708d8800c01a210055
:1020e40011c0b30001487800201b21001040780083
:1020f4000004e00006003400c01a21008040eb0018
:102104000148780030d0bf000040e80030f0b7004c
:1021140030d0bf000004e00004003a004230210047
:102124008000eb000000eb000200010030d0bf0093
:10213400e14f500004003a00423021001100200019
:10214400100020000200010030d0bf00e24f500018
:1021540008003a00423021008000eb000000eb0050
:102164000200010030828000408488006082800088
:102174005084880030d0bf00e34f500004003a0080
:1021840042302100110020000080eb000200010019
:1021940030d0bf00e44f500006003a004230210026
:1021a4008000eb000000eb000200010030828000a0
:1021b4006084880030d0bf00e54f500004003a002e
:1021c4004230210011002000100020000200010014
:1021d40030d0bf00e64f500004003a0042302100e6
:1021e4008000eb000000eb000200010030d0bf00d3
:1021f400e74f500004003a00423021008080eb0099
:10220400100020000200010030d0bf00e84f500051
:1022140006003a00423021008000eb000000eb0091
:1022240002000100608280007084880030d0bf000a
:10223400e94f500004003a00423021001100200010
:102244000080eb000200010030d0bf00e94f5000d5
:1022540045003400423021008000eb000000eb0018
:10226400020001002970ef003070ef0061848000eb
:10227400408480000080500000f0a7000000ea00c5
:10228400000f78007184800050848000008050002a
:1022940000f0a7000000ea001007980061848000a5
:1022a40040848000808f50000c003c0030062000e9
:1022b4009e007800808f50000800340071848000f4
:1022c40050848000808f500004003c009e009000e9
:1022d40030062000808f50000b003c0010c0b3007b
:1022e40059f0b700c000200050838800903e2000c1
:1022f40060838800c000200070838800903e200026
:102304008083880018003700608480005083880030
:10231400408480006083880070848000708388001b
:10232400508480008083880050838000800078007f
:1023340080002000d50c07006083800080007800b6
:10234400a0002000d10c070070838000800078007a
:10235400c0002000cd0c070080838000800078003e
:10236400e0002000c90c070020838000e10f50002a
:10237400a2003a0030d0bf000004e00008003a0098
:10238400808d80000000e00005003a004006200037
:10239400708d8800c01a210011c0b3000148780074
:1023a40030d0bf00e14f50000a003a00808d800019
:1023b4000000e00007003a0011838000400620007e
:1023c4008088b900708d8800c01a210011c0b30044
:1023d4000148780030d0bf00e24f500008003a00b6
:1023e400808d80000000e00005003a0040062000d7
:1023f400708d8800c01a210011c0b3000148780014
:1024040030d0bf00e34f50000a003a00808d8000b6
:102414000000e00007003a0011838000400620001d
:102424008088b900708d8800c01a210011c0b300e3
:102434000148780030d0bf00e44f500008003a0053
:10244400808d80000000e00005003a00803e2000fe
:10245400708d8800c01a210011c0b30001487800b3
:10246400201b2100104078000004e0000600340026
:10247400c01a21008040eb000148780030d0bf0032
:102484000040e80030f0b70030d0bf000004e000a6
:1024940004003a00423021008000eb000000eb0011
:1024a4000200010030d0bf00e14f500004003a00a8
:1024b4004230210011002000100020000200010021
:1024c40030d0bf00e24f500006003a0042302100f5
:1024d4008000eb000000eb0002000100308280006d
:1024e4004084880030d0bf00e34f500004003a001d
:1024f400423021008000eb000080eb00020001006c
:1025040030d0bf00e44f500006003a0042302100b2
:102514008000eb000000eb0002000100308280002c
:102524006084880030d0bf00e54f500033003a008b
:102534002970ef003070ef006184800040848000d7
:102544000080500000f0a7000000ea00000f7800af
:102554006184800040848000808f500004003c002f
:10256400300620009e007800808f50000b003c0055
:1025740010c0b30059f0b700c00020005083880099
:10258400903e200060838800c000200050838800b3
:10259400903e20006083880018003700608480002b
:1025a400508388004084800060838800c00020003d
:1025b40070838800903e20008083880050838000d0
:1025c4008000780080002000300c070060838000c9
:1025d40080007800a00020002c0c0700708380008d
:1025e40080007800c0002000280c07008083800051
:1025f40080007800e0002000240c07000080fa002e
:10260400000006000400fa00000f7800110798008b
:102614001e0078000000e00002003a005170ef0054
:102624005270ef001e007800e10f500003003a00e2
:1026340010c0b30051f0b7005270ef001e007800d4
:10264400e10f400004003a0010c0b30051f0b7009d
:1026540010c0b30052f0b7001e0090000000e0006c
:1026640002003a005370ef005470ef001e00900017
:10267400e10f500003003a0010c0b30053f0b7005c
:102684005470ef001e009000e10f400004003a0077
:1026940010c0b30053f0b70010c0b30054f0b7003b
:1026a4000080fa00000006000200fa00e0818000c9
:1026b400000f780020838000e20f500008003a00e9
:1026c40030838000e10f500005003a009e0078003e
:1026d40061818800400620001e005000708188003f
:1026e40020838000e20f500016003a0030838000ff
:1026f400e20f500013003a00200320009e007800ef
:10270400808f500005003c001e007800000040004f
:10271400608188004006200070818800200320002a
:102724009e007800808f5000060034004006200090
:1027340060818800400620001e0050000000400018
:102744007081880020838000e10f500003003a006c
:102754009e007800618188002e30ef0018d0bf0001
:102764000004e00009003a00813d210060818000fe
:102774000100010020838000e10f500003003200bb
:10278400a14c2100708180000100010018d0bf001d
:102794000004e00003003200110020000080eb0080
:1027a40098ff07000080fa00000006000400fa0009
:1027b4001007980041838000408280000101780066
:1027c4009e0090001ffd0700000f78001e00780097
:1027d4000000e00006003a0083d0bf000004e000df
:1027e40003003a0084d0bf000004e000030032007c
:1027f40085d0bf000004e000040032005170ef00f7
:102804005270ef0010c0b30085f0b70085d0bf0050
:102814000004e00003003200c017210011c0b3001f
:102824000148780020182100104078000004e000de
:102834000c003400c01721008040eb0001487800f0
:10284400401821008040eb0001487800c0182100a6
:102854008040eb00014878008570ef008470ef0041
:102864008370ef001e007800e10f500006003a006c
:1028740085d0bf000004e00003003a0083d0bf000d
:102884000004e0000300320084d0bf000004e00034
:102894000500320010c0b30051f0b7005270ef00d1
:1028a40010c0b30084f0b7001e007800e10f4000b0
:1028b40006003a0085d0bf000004e00003003a009f
:1028c40084d0bf000004e0000300320083d0bf00c6
:1028d4000004e0000600320010c0b30051f0b7005d
:1028e40010c0b30052f0b70010c0b30083f0b700bb
:1028f40084d0bf000004e000060032001e0078000f
:10290400e10f5000030032004018210011c0b30051
:1029140001487800a0182100104078000004e0006d
:1029240006003400401821008040eb000148780084
:102934008470ef0010c0b30085f0b70083d0bf00ef
:102944000004e000060032001e007800e10f4000a1
:1029540003003200c018210011c0b3000148780000
:1029640020192100104078000004e0000600340023
:10297400c01821008040eb00014878008370ef000c
:1029840010c0b30085f0b7000080fa000000060014
:102994000400fa00100798004183800070828000d0
:1029a400010178009e009000a6fc0700000f78004b
:1029b4001e0078000000e00006003a0080d0bf004e
:1029c4000004e00003003a0081d0bf000004e000ee
:1029d4000300320082d0bf000004e0000400320093
:1029e4005370ef005470ef0010c0b30082f0b700d2
:1029f40082d0bf000004e00003003200401921002f
:102a040011c0b30001487800a019210010407800db
:102a14000004e0000c003400401921008040eb0069
:102a240001487800c01921008040eb00014878007b
:102a3400401a21008040eb00014878008270ef00ca
:102a44008170ef008070ef001e007800e10f5000ed
:102a540006003a0082d0bf000004e00003003a0000
:102a640080d0bf000004e0000300320081d0bf002a
:102a74000004e0000500320010c0b30053f0b700ba
:102a84005470ef0010c0b30081f0b7001e0078004e
:102a9400e10f400006003a0082d0bf000004e000cd
:102aa40003003a0081d0bf000004e00003003200bc
:102ab40080d0bf000004e0000600320010c0b30064
:102ac40053f0b70010c0b30054f0b70010c0b30007
:102ad40080f0b70081d0bf000004e000060032009f
:102ae4001e007800e10f500003003200c0192100dd
:102af40011c0b30001487800201a2100104078006a
:102b04000004e00006003400c01921008040eb00fe
:102b1400014878008170ef0010c0b30082f0b70064
:102b240080d0bf000004e000060032001e007800e0
:102b3400e10f400003003200401a210011c0b3002d
:102b440001487800a01a2100104078000004e00039
:102b540006003400401a21008040eb000148780050
:102b64008070ef0010c0b30082f0b7000080fa005c
:102b7400000006000000fa0022d0bf00f34f50000e
:102b84000300340022d0bf00fd4f50000300340086
:102b940022d0bf00fe4f500010003a0021d0bf00e9
:102ba400e14f500005003a008040eb0010c0b30034
:102bb400f8050700c0cdb300c105070021d0bf0050
:102bc4000004e00005003a008040eb0010c0b300b0
:102bd400f005070000c2b300b905070022d0bf000a
:102be400e14f500006003a00f081800080407800f8
:102bf400e081800023c0b30012c0b300a208070024
:102c040022d0bf00e24f50000a003a0060818000e9
:102c14000041eb0011c0b300d1060700a10421005c
:102c2400914078004082800053c0b30012c0b300ca
:102c34001d09070022d0bf00e34f500018003a00de
:102c440020838000e20f50000a003a007081800067
:102c54000041eb0011c0b300c106070001052100cb
:102c6400914078007082800053c0b30012c0b3005a
:102c74000d09070020838000e10f500008003a008e
:102c84000041eb0011c0b3000000eb00b4060700e4
:102c940052c0b30011c0b3000000eb00b00607003f
:102ca40022d0bf00e44f500004003a0031d0bf00ee
:102cb4000041eb0011c0b3001308070022d0bf008d
:102cc400e54f50002a003a00c0a72800d0838800ae
:102cd40019d0bf000004e0000200320050a8280010
:102ce400d083880058d0bf000004e0000200320006
:102cf400e0a82800d083880056d0bf000004e0007c
:102d04000200320070a92800d083880057d0bf0089
:102d14000004e0000200320000aa2800d0838800ea
:102d240059d0bf000004e0000200320090aa28003d
:102d3400d083880029d0bf000004e00007003200df
:102d440020ab2800d083880030d0bf000000fb00f7
:102d540062c0b30011c0b300b20707008040eb00ab
:102d640010c0b3008b050700d0838000a4050700c2
:102d740022d0bf00f64f500004003a0020838000a8
:102d840022c0b30011c0b300a607070022d0bf00c1
:102d9400f54f500011003a0090ab2800e083880002
:102da40030838000e10f500002003a0010ac28008c
:102db400e083880030838000e20f500002003a0074
:102dc400a0ac2800e083880011c0b30010c0b30099
:102dd40070050700e08380008905070022d0bf004a
:102de400f44f500004003a001083800022c0b30066
:102df40011c0b3008b07070022d0bf00f74f50006b
:102e040004003a004083800032c0b30011c0b30014
:102e14008407070022d0bf00fe4f500011003a0083
:102e240090ab2800e083880029d0bf000004e000b4
:102e340002003a0090ab2800e083880029d0bf004c
:102e4400e14f500002003a0030ad2800e0838800d2
:102e540011c0b30010c0b3004e050700e08380002a
:102e64006705070022d0bf00f84f500004003a0065
:102e74003082800012c0b30011c0b3008105070086
:102e840022d0bf00fb4f500004003a006082800053
:102e940012c0b30011c0b3007a05070022d0bf00ee
:102ea400f94f500004003a005083800012c0b30070
:102eb40011c0b3007305070022d0bf00fa4f5000c1
:102ec40004003a006083800012c0b30011c0b30054
:102ed4006c05070022d0bf00fc4f500004003a00ec
:102ee4007083800012c0b30011c0b30065050700f1
:102ef40022d0bf00fd4f500004003a0080838000c0
:102f040012c0b30011c0b3005e0507000080fa00d0
:102f1400000006000000fa00150507008040eb00e1
:102f24000040eb001b050700b0ad28003405070086
:102f340071c0b30010c0b3001605070040ae2800ee
:102f44002f0507000080fa00000006000000fa00c8
:102f5400070507008040eb000040eb000d0507006b
:102f640060ae28002605070031c0b30010c0b300ce
:102f740008050700f0ae2800210507000080fa00cc
:102f8400000006000000fa00f90407008040eb008e
:102f94000040eb00ff04070020af280018050700dd
:102fa40031c0b30010c0b300fa040700f0ae28002b
:102fb400130507000080fa00000006000000fa0074
:102fc400eb0407008040eb000040eb00f104070035
:102fd400b0af28000a0507000080fa0000000600d0
:102fe4000000fa00e20407008040eb000040eb0020
:102ff400e804070040b02800010507000080fa003b
:10300400000006000000fa00d90407008040eb002d
:103014000040eb00df040700d0b02800f8040700ec
:103024008040eb0010c0b300da04070060b1280050
:10303400f30407000080fa00000006000000fa0014
:10304400cb0407008040eb000040eb00d1040700f4
:10305400f0b12800ea04070051c0b30010c0b30067
:10306400cc04070080b22800e50407000080fa00c1
:10307400000006000000fa00bd0407008040eb00d9
:103084000040eb00c3040700c0b22800dc040700c2
:103094000080fa00000006000000fa00b4040700f3
:1030a4008040eb000040eb00ba04070050b3280056
:1030b400d30407000080fa00000006000000fa00b4
:1030c400ab0407008040eb000040eb00b1040700b4
:1030d400e0b32800ca04070061c0b30010c0b30005
:1030e400ac04070070b42800c50407000080fa008f
:1030f400000006000000fa009d0407008040eb0079
:103104000040eb00a3040700a0b42800bc0407009f
:1031140061c0b30010c0b3009e04070030b528009e
:10312400b70407000080fa00000006000000fa005f
:103134008f0407008040eb000040eb00950407007b
:1031440060b52800ae04070061c0b30010c0b3002e
:103154009004070030b52800a90407000080fa0095
:10316400000006000000fa00810407008040eb0024
:103174000040eb0087040700f0b52800a004070016
:1031840061c0b30010c0b3008204070030b528004a
:103194009b0407000080fa00000006000000fa000b
:1031a400730407008040eb000040eb007904070043
:1031b40080b628009204070061c0b30010c0b300b9
:1031c4007404070030b528008d0407000080fa005d
:1031d400000006000000fa00650407008040eb00d0
:1031e4000040eb006b04070010b7280084040700bc
:1031f40061c0b30010c0b3006604070030b52800f6
:103204007f0407000080fa00000006000000fa00b6
:10321400570407008040eb000040eb005d0407000a
:10322400a0b728007604070061c0b30010c0b30043
:103234005804070030b52800710407000080fa0024
:10324400000006000000fa00490407008040eb007b
:103254000040eb004f04070030b828006804070062
:103264000080fa00000006000000fa004004070095
:103274008040eb000040eb0046040700c0b8280083
:103284005f0407008040eb0010c0b3004104070056
:1032940050b928005a0407000080fa000000060014
:1032a4000000fa00320407008040eb000040eb000d
:1032b40038040700e0b92800510407008040eb00ff
:1032c40010c0b3003304070070ba28004c04070090
:1032d4000080fa00000006000000fa002404070041
:1032e4008040eb000040eb002a04070000bb2800ec
:1032f400430407008040eb0010c0b300250407001e
:1033040090bb28003e0407000080fa00000006007d
:103314000000fa0028d0bf000004e00002003a00d8
:103324002070ef000200370020c0b30020f0b70087
:103334001dd0bf000004e0000c003a001ad0bf000a
:103344000004e0000900320021d0bf000004e000c6
:1033540006003a001ed0bf000004e0000300320063
:1033640022d0bf000040e90022f0b7001fd0bf0008
:103374000004e0000c003a001cd0bf000004e00090
:103384000900320021d0bf000004e00006003a002a
:103394001ed0bf000004e0000300320022d0bf00b2
:1033a4000040e80022f0b70020d0bf000004e00095
:1033b4000a003a0022d0bf00e64f50000200340059
:1033c40010c0b30022f0b70022d0bf000004e00018
:1033d40002003c0060c0b30022f0b70028d0bf0058
:1033e4000004e0000c00320021022100914078002a
:1033f40010c2b30080cf50000200340040c1b300bb
:1034040022f0b70022d0bf00f34f500002003c006e
:1034140010c2b30022f0b70022d0bf00e64f500024
:10342400010032007670ef0022d0bf00e64f50005a
:103434000c003a001ed0bf000004e00009003a006e
:103444001fd0bf000004e00006003a001cd0bf00fb
:103454000004e0000300320076d0bf000040e80022
:1034640076f0b70022d0bf00e64f50000d003a00be
:1034740076d0bf00e64f50000a0034001ed0bf00d3
:103484000004e0000700320010c0b30028f0b700c9
:1034940010c0b30017f0b7007670ef00d0c4b300cb
:1034a40022f0b700210221009140780000c2b3004d
:1034b40080cf50000a003a001ed0bf000004e00094
:1034c40007003a001bd0bf000004e00004003200f3
:1034d40010c0b30022f0b7002870ef00c3f9070052
:1034e40022d0bf00ff4f500009003a001ed0bf0099
:1034f4000004e00006003a001bd0bf000004e00016
:103504000300320010c0b30022f0b7002870ef00af
:1035140022d0bf00e54f500008003a001ed0bf0083
:103524000004e00003003a0010c0b30019f0b70033
:10353400030037001970ef00010037001970ef0025
:1035440022d0bf00f34f50000300340022d0bf004c
:10355400fd4f50000300340022d0bf00fe4f500046
:103564000d003a001ed0bf000004e00006003a003f
:103574001bd0bf000004e0000300320021d0bf00d4
:103584000040e80021f0b70021d0bf00e14f500017
:10359400010034002170ef005102210091407800b5
:1035a40022d0bf0080cf5000010032002170ef0014
:1035b40022d0bf00e64f500001003c002170ef0014
:1035c40022d0bf00f74f50001f003a0021d0bf00a7
:1035d400e14f50001c003a001dd0bf000004e00081
:1035e40006003a001ad0bf000004e00003003200d5
:1035f400408380000000e900408388001fd0bf00a2
:103604000004e00006003a001cd0bf000004e00003
:1036140003003200408380000000e80040838800fb
:1036240040838000ea0f500002003400a000200014
:1036340040838800408380000000e00002003c00da
:10364400100020004083880022d0bf00fe4f5000ad
:1036540017003a0021d0bf00e14f500014003a0097
:103664001dd0bf000004e00004003a001ad0bf00df
:103674000004e000010032002970ef001fd0bf00f9
:103684000004e00005003a001cd0bf000004e00084
:103694000200320010c0b30029f0b70029d0bf00e7
:1036a40077f0b7003070ef0010c0b30078f0b700c7
:1036b40022d0bf00fe4f50000f003a0077d0bf0069
:1036c4000004e0000c00320021d0bf000004e00040
:1036d40009003a0078d0bf000004e0000600320080
:1036e4002870ef0010c0b30017f0b70050c0b3004b
:1036f40022f0b7007770ef0022d0bf00f64f5000e1
:1037040013003a0021d0bf00e14f500010003a00ee
:103714001dd0bf000004e00005003a001ad0bf002d
:103724000004e00002003200100020002083880022
:103734001fd0bf000004e00005003a001cd0bf0009
:103744000004e000020032002000200020838800f2
:1037540022d0bf00f54f500013003a0021d0bf0023
:10376400e14f500010003a001dd0bf000004e000fb
:1037740005003a001ad0bf000004e0000200320045
:1037840010002000308388001fd0bf000004e00038
:1037940005003a001cd0bf000004e0000200320023
:1037a400200020003083880022d0bf00f44f500056
:1037b40020003a0021d0bf00e14f50001d003a0024
:1037c4001dd0bf000004e00006003a001ad0bf007c
:1037d4000004e00003003200108380000000e900d0
:1037e400108388001fd0bf000004e00006003a00e8
:1037f4001cd0bf000004e0000300320010838000ee
:103804000000e8001083880011838000f005200088
:10381400808f500002003400f005200010838800df
:1038240010838000f30f500002003c004001200090
:103834001083880022d0bf0025f0b7001dd0bf0040
:103844001af0b7001ed0bf001bf0b7001fd0bf0096
:103854001cf0b7001dd0bf000004e00006003200d9
:103864001ed0bf000004e000030032001fd0bf00e0
:103874000004e00001003a003630ef000080fa0056
:10388400000006000000fa00310221009140780097
:1038940022d0bf0080cf50000300320010c0b3001c
:1038a40026f0b700010037002670ef0022d0bf00d9
:1038b40023f0b70026d0bf000004e000540032001b
:1038c40022d0bf00e14f500001003a0091fd0700f3
:1038d40022d0bf00e24f500001003a009bfd0700d8
:1038e40022d0bf00e34f500001003a00a5fd0700bd
:1038f40022d0bf00e44f500001003a00affd0700a2
:1039040022d0bf00e54f500001003a00b4fd07008b
:1039140022d0bf00e64f500001003a00b9fd070075
:1039240022d0bf00f44f500001003a00c3fd07004d
:1039340022d0bf00f54f500001003a00cdfd070032
:1039440022d0bf00f64f500001003a00d2fd07001c
:1039540022d0bf00f74f500001003a00d7fd070006
:1039640022d0bf00f84f500001003a00e1fd0700eb
:1039740022d0bf00f94f500001003a00ebfd0700d0
:1039840022d0bf00fa4f500001003a00f5fd0700b5
:1039940022d0bf00fb4f500001003a00fffd07009a
:1039a40022d0bf00fc4f500001003a0009fe07007e
:1039b40022d0bf00fd4f500001003a0013fe070063
:1039c40022d0bf00fe4f500001003a001dfe070048
:1039d40022d0bf00ff4f500001003a0022fe070032
:1039e400210221009140780000c2b30080cf500032
:1039f40001003a002afe07002102210091407800cc
:103a040010c2b30080cf500001003a0032fe07001c
:103a14000080fa00000006000400fa0075d0bf0020
:103a24000040e80075f0b70075d0bf00e14f5000ca
:103a340009003a00d081800060070700f081880007
:103a4400f1818000d08180000101780041062000ce
:103a5400ae070700e081880075d0bf00e24f500038
:103a640008003a004a70ef005383800062838000ac
:103a74004ad0bf008000fb0030828000e3070700cb
:103a84004082880075d0bf00e34f50000b003a001d
:103a940060828000740707000040780050f0b7008f
:103aa400738380008283800050d0bf008000fb00bd
:103ab40060828000d50707007082880075d0bf003f
:103ac400e34f500010003400108280008000eb00af
:103ad40095f5070092972e0063e22300e7f50700af
:103ae40042b62300330d2400c8f40700008fbe0043
:103af4001e0078009e00900067f507000000780023
:103b0400208288007570ef000080fa000000060033
:103b14000000fa0020808000e10f50001100320004
:103b2400e10f500003003c000000e00006003200fa
:103b340021003700e20f500011003200e30f500063
:103b4400160032001c00370030808000011880000d
:103b540000014000400b21000000410001087800f2
:103b640015003700308080000118800000014000fb
:103b7400400d210000004100010878000e003700cc
:103b8400308080000118800000014000400f2100b7
:103b940000004100010878000700370030808000f1
:103ba4000118800000014000401121000000410084
:103bb4000108780000000000208080000000e80078
:103bc4002080880020808000e40f500004003a0028
:103bd4000430ef00308080000000e800308088006e
:103be40030808000f00f500001003a000630ef00f2
:103bf4000030ef000230ef000c003700108080002e
:103c040080004000400b210000804000100078003c
:103c140080007800008080000080400000808800e0
:103c2400108080000000e800108088001080800070
:103c3400ef0f5000f1ff3600008080004400de00ea
:103c44000080880000808000108288000030ef002f
:103c54000230ef000c00370010808000800040002c
:103c6400400d2100008040001000780080007800a2
:103c74000080800000804000008088001080800068
:103c84000000e8001080880010808000ef0f5000d2
:103c9400f1ff3600008080004400de0000808800d0
:103ca40000808000d08188000030ef000230ef00f7
:103cb4000c0037001080800080004000400f21007d
:103cc40000804000100078008000780000808000b0
:103cd4000080400000808800108080000000e80020
:103ce4001080880010808000ef0f5000f1ff360034
:103cf400008080004400de00008088000080800096
:103d0400608288000030ef000230ef000c003700c2
:103d1400108080008000400040112100008040009d
:103d2400100078008000780000808000008040004f
:103d340000808800108080000000e8001080880067
:103d440010808000ef0f5000f1ff360000808000eb
:103d54004400de00008088000080800030828800fb
:103d64000080fa00000006000000fa007470ef0002
:103d740020838000e20f500007003a004182800057
:103d84007082800000804000fd0f500002003e0061
:103d940010c0b30058f0b7004ad0bf000004e000e0
:103da4000300340010c0b30056f0b7000100370020
:103db4005670ef0020838000e20f500006003a00a6
:103dc40050d0bf000004e0000300340010c0b30072
:103dd40057f0b700010037005770ef007470ef0020
:103de40058d0bf00e140600074d0bf0000c0700034
:103df40074f0b70059d0bf000000fb006100600000
:103e0400000040008040780074d0bf0000c0700003
:103e140074f0b70056d0bf000000fb0061006000e2
:103e24004200dd008040780074d0bf0000c0700004
:103e340074f0b70057d0bf000000fb0061006000c1
:103e44004300dd008040780074d0bf0000c07000e3
:103e540074f0b70074d0bf000004e00004003a001e
:103e64001870ef00401721008040eb0001487800f3
:103e740074d0bf000004e0000300340040172100a8
:103e840011c0b30001487800a01721001040780049
:103e94000004e0000200340010c0b30018f0b700c2
:103ea40018d0bf000004e00003003a0019d0bf009e
:103eb4000004e0000300320010c0b30055f0b70066
:103ec400010037005570ef000080fa000000060082
:103ed4000000fa00830b0700e0cd20000e0a070063
:103ee40020c12000490a0700a0d82100680b070060
:103ef40010c0b30022f0b7002370ef00fd000700ec
:103f04002870ef0007f70700803e2000308b880000
:103f1400a0002000708b8800401f2000b08b880018
:103f2400c0122000f08b880040012000308c8800f3
:103f340040012000708c8800c0122000b08c8800e2
:103f440040012000f08c880040012000308d880062
:103f54001230ef000f00370090808000c300dd00b6
:103f640040132100008040008040eb0001487800ad
:103f740090808000c300dd00a01321000080400079
:103f84008040eb0001487800908080000000e80049
:103f94009080880090808000f00f5000eeff340085
:103fa4001670ef002970ef003070ef001870ef000a
:103fb40040062000908188005670ef005770ef0093
:103fc4005870ef005970ef005170ef005270ef001d
:103fd4005370ef005470ef005570ef001100200093
:103fe4000080eb0087f9070055f70700800c2000dc
:103ff4008c0a070002f607000100370000000000e9
:1040040020fe070084fe070029d0bf000004e00062
:1040140007003a00a4f907003070ef0040062000c2
:1040240090818800c01a21008040eb00014878008c
:1040340029d0bf000004e00001003200a5f707000a
:104044003ff7070048ff070027d0bf000004e00047
:1040540018003200c7fa07002770ef004082800082
:10406400004078006ff607007082800000407800fe
:104074008cf60700808b80000000e00003003a000b
:10408400c016210011c0b300014878002017210098
:10409400104078000004e00006003400c01621003f
:1040a4008040eb00014878002ad0bf0000c0ea003d
:1040b4002af0b700d6f5070017d0bf000004e000cf
:1040c400ceff32001770ef0091fc0700ccff3700e1
:1040d4000200fa00004f78009e40780061c0600042
:1040e40061406000614060000080fb00610060008e
:1040f400217180000100a10001007000207188007e
:104104001e80fb006200600000f0a7000000ea00cf
:104114000000ea004f00de00004078000080fb0051
:104124006100600000004000217180000110a100c6
:1041340001007000207188001e80fb006400600094
:1041440000f0a7000000ea000000ea004f00de00d3
:10415400004078000080fb00610060004200dd0048
:10416400217180000120a1000100700020718800ed
:104174001e80fb006800600000f0a7000000ea0059
:104184000000ea004f00de00004078000080fb00e1
:10419400610060004300dd00217180000130a10056
:1041a40001007000207188001e80fb007000600018
:1041b40000f0a7000000ea000000ea004f00de0063
:1041c400004078000080fb00610060004400dd00d6
:1041d400217180000140a10001007000207188005d
:1041e4009e80fb00000220000080600000f0a70019
:1041f4000000ea000000ea004f00de000040780002
:104204000080fb00610060004500dd00217180003a
:104214000150a10001007000207188009e80fb0005
:10422400000420000080600000f0a7000000ea0005
:104234000000ea004f00de00004078000080fb0030
:10424400610060004600dd00217180000160a10072
:1042540001007000207188001e4078000080fb007f
:104264004700de00004078000080fb006100600031
:104274004700dd00217180000170a1000100700081
:10428400207188000080fa00000006000200fa0095
:10429400004f7800252ea900250ea8001e407800a6
:1042a4008bff0700401f2000ef090700250ea9001f
:1042b400401f2000ec0907000080fa0000000600ff
:1042c4000200fa00004f7800252ea800250ea80051
:1042d4001e4078007eff0700401f2000e20907000f
:1042e400250ea900401f2000df0907000080fa0006
:1042f400000006000000fa000040eb0074ff070015
:1043040080c0b300e1ff070040062000d609070083
:10431400a0c3b300ddff070040062000d209070058
:10432400a0c3b300d9ff070040062000ce09070050
:10433400a0c3b300d5ff070040062000ca09070048
:1043440010c0b300d1ff070040062000c6090700d3
:1043540060c0b300cdff070040062000c20907007b
:10436400c0c0b300c9ff07000080fa0000000600c7
:104374000000fa0010c0b300c4ff0700800c200046
:10438400b909070010c0b300c0ff07000080fa009d
:10439400000006000200fa00004f78001147980060
:1043a4009e40780062c060000004e0000300320018
:1043b4001e40900074404000104798001e80fb008f
:1043c40061006000004078000004e0000500320055
:1043d4009e40900000ccb30000c0700010479800cd
:1043e400030037001e4090000074a000104798009e
:1043f4001e409000a5ff07000080fa0000000600a0
:104404000600fa00200798000000eb00100798004f
:1044140014003700ae0090001e00900000804000a1
:1044240010407800004f78001e0090000000e80063
:1044340010079800f0cbb3009e40780080cf500066
:10444400060036001e80fb00000cb10021bc2800d1
:104454000080400010407800004f78001e40780033
:1044640097ff0700ae0090001e00900000804000ff
:10447400104078000004e000e6ff3a000080fa00f3
:10448400000006000a00fa0030079800014f980067
:10449400124f98000003230001032300008fbe0085
:1044a4000040eb0040479800be009000f0702200ee
:1044b400808f500039003c00be009000703e200008
:1044c400808f500035003400be009000803e2000f4
:1044d40000017800110009008200d80080007800f3
:1044e400a000200000017800110009008200d8001b
:1044f4008000fd00004078000043b000004f7800c9
:104504003e019000b04721000090b900c388de004e
:104514004f90de0080805000a00020000001780051
:10452400110009008200d8008000fd0000407800de
:104534000043b000104798003e01900070662600ca
:104544000090b900c288de004f90de0080805000e9
:10455400706626000089b9004299de004f88de00ab
:1045640000005100ea00b9000080500000407800cb
:104574000043b00020479800be009000a000200037
:1045840000017800110009008200d8008000fd00bd
:10459400004078000043b00030479800be0090000f
:1045a400703e2000808f50002d003c00be00900023
:1045b40030062000808f50002900340000c2b30070
:1045c400004f78003e019000b04721000090b900f0
:1045d400c388de004f90de0080805000a0002000e1
:1045e40000017800110009008200d8008000fd005d
:1045f400004078000043b000104798003e0190004e
:10460400706626000090b900c288de004f90de007c
:1046140080805000706626000089b9004299de004f
:104624004f88de0000005100ea00b900008050000d
:10463400004078000043b00020479800be0090007e
:10464400a000200000017800110009008200d800b9
:104654008000fd00004078000043b000304798001f
:10466400be00900030062000808f500020003c00e7
:104674003e009000e90f50001d00340000c2b3005a
:10468400004f780000c2b300104798003e0190002c
:10469400706626000090b900c288de004f90de00ec
:1046a40080805000706626000089b9004299de00bf
:1046b4004f88de0000005100ea00b900008050007d
:1046c400004078000043b00020479800be009000ee
:1046d400a000200000017800110009008200d80029
:1046e4008000fd00004078000043b000304798008f
:1046f4003e009000e90f500012003c003e00900084
:104704000000e0000f00350000c2b300004f780045
:1047140000c2b3001047980000c2b30020479800bd
:10472400be009000a00020000001780011000900e4
:104734008200d8008000fd00004078000043b000f3
:10474400304798009e4890000e48900011ff0700e3
:104754000e0078002aff07000080fa00000006001f
:104764000800fa00200798006147980072479800f3
:104774000003230001032000008fbe00ae00900060
:10478400703e2000808f50002b003c00ae00900053
:1047940030062000808f5000270034002e01900046
:1047a400b04721000090b900c388de004f90de00be
:1047b40080805000a0002000000178001100090052
:1047c4008200d8008000fd00004078000043b00063
:1047d400004f78002e019000706626000090b9000a
:1047e400c288de004f90de00808050007066260094
:1047f4000089b9004299de004f88de0000005100b4
:10480400ea00b90000805000004078000043b00086
:1048140010479800ae009000a0002000000178002e
:10482400110009008200d8008000fd0000407800db
:104834000043b00020479800ae00900030062000ee
:10484400808f50001e003c002e009000e90f5000a5
:104854001b00340000c2b300004f78002e0190000a
:10486400706626000090b900c288de004f90de001a
:1048740080805000706626000089b9004299de00ed
:104884004f88de0000005100ea00b90000805000ab
:10489400004078000043b00010479800ae0090003c
:1048a400a000200000017800110009008200d80057
:1048b4008000fd00004078000043b00020479800cd
:1048c4002e009000e90f500010003c002e009000d4
:1048d4000000e0000d00350000c2b300004f780076
:1048e40000c2b30010479800ae009000a000200062
:1048f40000017800110009008200d8008000fd004a
:10490400004078000043b00020479800fe4090002b
:104914006e4090009ffe07000e007800b8fe07006e
:104924000080fa00000006000c00fa00400798001e
:10493400214f9800324f98000003230001e3220026
:104944001007980021079800000320003007980002
:104954004e019000706626000090b900c288de0007
:104964004f90de0000805000000f7800703e200061
:104974009e007800808f50002f003e0030062000fb
:104984009e007800808f50002b0036001e007800b7
:10499400c200de00b04721000008b8000101d100c8
:1049a400d0cc2c000010b8004308de00ea00b900a7
:1049b40000005100004078000043b00020479800f8
:1049c4009e007800d0cc2c000008b8004309de001b
:1049d400d0cc2c000010b8004308de00ea00b90077
:1049e40000005100004078000043b00030479800b8
:1049f4001e017800d0cc2c000010b8004308de0063
:104a0400ea00b90000005100004078000043b00003
:104a140040479800ce009000a000200000017800dc
:104a2400110009008200d8008000fd0000407800d9
:104a34000043b00060479800300620009e007800d4
:104a4400808f500023003e001e007800e90f5000c4
:104a54002000360000c2b300204798009e00780072
:104a6400d0cc2c000008b8004309de00d0cc2c00c8
:104a74000010b8004308de00ea00b900000051004d
:104a8400004078000043b000304798001e017800d1
:104a9400d0cc2c000010b8004308de00ea00b900b6
:104aa40000005100004078000043b00040479800e7
:104ab400ce009000a0002000000178001100090041
:104ac4008200d8008000fd00004078000043b00060
:104ad400604798001e007800e90f500016003e0061
:104ae40000c2b3002047980000c2b30030479800ca
:104af4001e017800d0cc2c000010b8004308de0062
:104b0400ea00b90000005100004078000043b00002
:104b140040479800ce009000a000200000017800db
:104b2400110009008200d8008000fd0000407800d8
:104b34000043b000604798004e0090000000e00081
:104b440031003d00ce00900030c22f00808f500015
:104b54002d003500d0c2b300204798001e00780015
:104b64000001780002f0a7000201ea007066260046
:104b74000090b900c288de004f90de0080805000b3
:104b8400706626000089b9004299de004f88de0075
:104b940000005100ea00b900008050000040780095
:104ba4000043b000304798001e0078008000780071
:104bb40001f0a7008100ea00a000200000017800b5
:104bc400110009008200d8008000fd000040780038
:104bd4000043b000404798004e00900080007800e9
:104be40001f0a7008100ea00a00020000001780085
:104bf400110009008200d8008000fd000040780008
:104c04000043b00060479800be4890002e489000d2
:104c1400e0fd07000e80e800f9fd07000080fa00bf
:104c2400000006000800fa00200798006147980079
:104c34007247980000032300000f78000040eb0047
:104c440020479800ae00900030062000808f50006e
:104c540018003e002e009000e90f500015003600a9
:104c6400ae009000d0cc2c000008b8004309de0050
:104c7400d0cc2c000010b8004308de00ea00b900d4
:104c840000005100004078000043b000004f78005d
:104c94002e019000d0cc2c000010b8004308de0098
:104ca400ea00b90000005100004078000043b00061
:104cb400104798002e009000e90f50000b003e00b2
:104cc40000c2b300004f78002e019000d0cc2c001d
:104cd4000010b8004308de00ea00b90000005100eb
:104ce400004078000043b00010479800fe40900058
:104cf4006e409000a7fd07000e007800c0fd07007d
:104d04000080fa00000006000e00fa00204f980010
:104d1400314f9800424f98000e00780002032300a0
:104d2400030323000288be00640040000203230042
:104d3400030323000288be00640040008040eb00af
:104d4400014878000000e8002e4890000000fb00b5
:104d540061006000004078000004e00002003200be
:104d640010c3b3000100370000c3b30070479800bc
:104d74002e4890000000fb00620060000000e0008c
:104d84000200320010c3b3000100370000c3b300b7
:104d9400604798002e4890000000fb00640060000b
:104da4000000e0000200320010c3b300010037002d
:104db40000c3b300504798002e4890000000fb0049
:104dc400680060000000e0000200320010c3b3007d
:104dd4000100370000c3b300404798002e489000fc
:104de4000000fb00700060000000e00002003200e0
:104df40010c3b3000100370000c3b300304798006c
:104e04002e4890008000fb0000022000008060001b
:104e14000000e0000200320010c3b30001003700bc
:104e240000c3b300204798002e4890008000fb0088
:104e340000042000008060000000e0000200320056
:104e440010c3b3000100370000c3b300104798003b
:104e54002e4890000004e00002003d0010c3b3009f
:104e64000100370000c3b300004f7800ce48900023
:104e74003e48900047fd07000e00780060fd0700e3
:104e84000080fa00000006000a00fa0020079800db
:104e94006147980072479800034f9800000323006d
:104ea40001032000008fbe006e4090000004e0006b
:104eb40064003a00ae009000703e2000808f5000e5
:104ec4002b003c00ae00900030062000808f500084
:104ed400270034002e019000b04721000090b90053
:104ee400c388de004f90de0080805000a0002000c8
:104ef40000017800110009008200d8008000fd0044
:104f0400004078000043b000004f78002e0190006c
:104f1400706626000090b900c288de004f90de0063
:104f240080805000706626000089b9004299de0036
:104f34004f88de0000005100ea00b90000805000f4
:104f4400004078000043b00010479800ae00900085
:104f5400a000200000017800110009008200d800a0
:104f64008000fd00004078000043b0002047980016
:104f7400ae00900030062000808f50001e003c00e0
:104f84002e009000e90f50001b00340000c2b30053
:104f9400004f78002e019000706626000090b90042
:104fa400c288de004f90de008080500070662600cc
:104fb4000089b9004299de004f88de0000005100ec
:104fc400ea00b90000805000004078000043b000bf
:104fd40010479800ae009000a00020000001780067
:104fe400110009008200d8008000fd000040780014
:104ff4000043b000204798002e009000e90f5000b5
:1050040010003c002e0090000000e0000d00350070
:1050140000c2b300004f780000c2b30010479800ec
:10502400ae009000a00020000001780011000900eb
:105034008200d8008000fd00004078000043b000ea
:10504400204798006e409000e14f500006003a005f
:10505400c0c4b300004f7800f0c4b30010479800f8
:10506400e0c2b300204798006e409000e24f500029
:1050740006003a0080c4b300004f780090c4b30027
:1050840010479800e0c2b300204798008e48900073
:105094007e409000bffc07000e007800d8fc07009b
:1050a4000080fa00000006000a00fa0020079800b9
:1050b4006147980072479800034f9800000323004b
:1050c40001032000008fbe002e0090000000e000cd
:1050d40002003d000000eb0020079800ae009000a5
:1050e400803e2000808f500002003400703e20007b
:1050f400200798006e4090000004e00065003a002c
:10510400ae009000703e2000808f50002b003c00c9
:10511400ae00900030062000808f5000270034003d
:105124002e019000b04721000090b900c388de0032
:105134004f90de0080805000a00020000001780025
:10514400110009008200d8008000fd0000407800b2
:105154000043b000004f78002e01900070662600d6
:105164000090b900c288de004f90de0080805000bd
:10517400706626000089b9004299de004f88de007f
:1051840000005100ea00b90000805000004078009f
:105194000043b00010479800ae009000a00020002b
:1051a40000017800110009008200d8008000fd0091
:1051b400004078000043b00020479800ae00900003
:1051c40030062000808f50001e003c002e0090000e
:1051d400e90f50001b00340000c2b300004f7800f8
:1051e4002e019000706626000090b900c288de008f
:1051f4004f90de0080805000706626000089b90060
:105204004299de004f88de0000005100ea00b90038
:1052140000805000004078000043b0001047980020
:10522400ae009000a00020000001780011000900e9
:105234008200d8008000fd00004078000043b000e8
:10524400204798002e009000e90f500017003c0002
:105254002e0090000000e0001400350000c2b300ee
:10526400004f780000c2b30010479800ae009000d1
:10527400a000200000017800110009008200d8007d
:105284008000fd00004078000043b00020479800f3
:105294000600370050c6b300004f780020c7b300a3
:1052a4001047980020c7b300204798008e4890000c
:1052b4007e40900037fc07000e00780050fc070089
:1052c4000080fa00000006000000fa00706520006b
:1052d400a010880017e2a9001722a8001742a9000d
:1052e4001782a80017e2a8002648a9000648a900ca
:1052f4000080fa00000006000000fa0016a2a900cf
:105304001682a80000000000b01080007000600049
:105314000000e000fcff3a000080fa0000000600f4
:105324000000fa0016a2a8001682a80000000000df
:10533400b0108000700060000000e000fcff3a0044
:105344000080fa00000006000000fa001662a900be
:105354001642a80000000000b01080006400600045
:105364000000e000fcff3a000080fa0000000600a4
:105374000000fa0016a2a9001602a800000000000e
:10538400b0108000610060000000e000fcff3a0003
:105394000080fa00000006000000fa001622a800af
:1053a40000000000b0108000620060000000e00017
:1053b400fcff3a0016a2a9001802a9000080fa0016
:1053c400000006000000fa0000000000c110800088
:1053d40000002800008060000000e000fbff3a00ad
:1053e4000080fa00000006000000fa00000000003f
:1053f400c110800000002400008060000000e00074
:10540400fbff3a000080fa00000006000200fa00e8
:10541400004f78001e80fb00901088000000000000
:10542400c0108000610060000000e000fcff3a0052
:105434000080fa00000006000000fa001662a800ce
:105444000000000000000000c01080006200600046
:105454000000e000fcff32000080fa0000000600bb
:105464000400fa00000f780021479800c0ff0700ed
:10547400e0cab300e5ff0700dbff07001e00780069
:10548400004078000000fb004880de000040780007
:10549400deff0700d4ff07001e00780000407800fc
:1054a400daff0700d0ff07002e409000d7ff070067
:1054b400cdff0700a4ff07000080fa0000000600eb
:1054c4000400fa0010079800a9ff0700e0cab3001f
:1054d400ceff0700c4ff07001e0090004800de0056
:1054e40000407800c9ff0700bfff07001e009000be
:1054f40000407800c5ff0700bbff0700a6ff0700b8
:10550400f0cab300c1ff0700b7ff0700caff0700d6
:1055140083ff07008cff070080108000004f780095
:105524001e4078000080fa00000006000a00fa001d
:105534002047980031479800424798003307980065
:10554400440798008aff07002e4090000000fb00eb
:105554000000400000407800acff0700a2ff0700f5
:105564003e409000a9ff07009fff07004e409000b7
:10557400a6ff07009cff07000000eb00000f780067
:10558400070037001e007800be0090000080400035
:10559400104078009dff070093ff07001e0fe800ee
:1055a4004e0090009e007800808f5000f5ff35007b
:1055b40065ff07000080fa00000006000a00fa00f8
:1055c40020479800314798004247980033079800d5
:1055d4004407980066ff07002e4090000000fb007f
:1055e400000040000040780088ff07007eff0700ad
:1055f4003e40900085ff07007bff07004e4090006f
:1056040082ff070078ff070063ff07002e40900029
:105614000000fb0000004000004078000004a000ef
:105624007aff070070ff07000000eb00000f78000e
:105634000900370080ff07001e007800be009000bc
:10564400008040008110800081407800014878008b
:1056540029ff07001e0fe8004e0090009e0078000e
:10566400808f5000f3ff35001e007800be009000cc
:10567400008040008040eb000148780028ff0700cc
:1056840031ff07000080fa00000006000600fa005f
